{
  "_format": "hh-sol-artifact-1",
  "contractName": "Market",
  "sourceName": "contracts/Market.sol",
  "abi": [
    {
      "anonymous": false,
      "inputs": [
        {
          "indexed": false,
          "internalType": "uint256",
          "name": "lendId",
          "type": "uint256"
        },
        {
          "indexed": false,
          "internalType": "address",
          "name": "lender",
          "type": "address"
        },
        {
          "indexed": false,
          "internalType": "address",
          "name": "nftAddress",
          "type": "address"
        },
        {
          "indexed": false,
          "internalType": "uint256",
          "name": "nftId",
          "type": "uint256"
        }
      ],
      "name": "CancelLendOrder",
      "type": "event"
    },
    {
      "anonymous": false,
      "inputs": [
        {
          "indexed": false,
          "internalType": "uint256",
          "name": "lendId",
          "type": "uint256"
        },
        {
          "indexed": false,
          "internalType": "address",
          "name": "lender",
          "type": "address"
        },
        {
          "indexed": false,
          "internalType": "address",
          "name": "nftAddress",
          "type": "address"
        },
        {
          "indexed": false,
          "internalType": "uint256",
          "name": "nftId",
          "type": "uint256"
        },
        {
          "indexed": false,
          "internalType": "uint64",
          "name": "minDuration",
          "type": "uint64"
        },
        {
          "indexed": false,
          "internalType": "uint64",
          "name": "maxDuration",
          "type": "uint64"
        },
        {
          "indexed": false,
          "internalType": "uint256",
          "name": "shareRatio",
          "type": "uint256"
        },
        {
          "indexed": false,
          "internalType": "address",
          "name": "paymentToken",
          "type": "address"
        }
      ],
      "name": "CreateLendOrder",
      "type": "event"
    },
    {
      "anonymous": false,
      "inputs": [
        {
          "indexed": false,
          "internalType": "uint256",
          "name": "rentId",
          "type": "uint256"
        },
        {
          "indexed": false,
          "internalType": "uint256",
          "name": "lendId",
          "type": "uint256"
        },
        {
          "indexed": false,
          "internalType": "address",
          "name": "renter",
          "type": "address"
        },
        {
          "indexed": false,
          "internalType": "address",
          "name": "lender",
          "type": "address"
        },
        {
          "indexed": false,
          "internalType": "address",
          "name": "nftAddress",
          "type": "address"
        },
        {
          "indexed": false,
          "internalType": "uint256",
          "name": "nftId",
          "type": "uint256"
        },
        {
          "indexed": false,
          "internalType": "uint256",
          "name": "startTime",
          "type": "uint256"
        },
        {
          "indexed": false,
          "internalType": "uint256",
          "name": "endTime",
          "type": "uint256"
        },
        {
          "indexed": false,
          "internalType": "uint8",
          "name": "shareRatio",
          "type": "uint8"
        },
        {
          "indexed": false,
          "internalType": "address",
          "name": "paymentToken",
          "type": "address"
        }
      ],
      "name": "FulfillOrder",
      "type": "event"
    },
    {
      "inputs": [
        {
          "internalType": "address",
          "name": "nftAddress",
          "type": "address"
        },
        {
          "internalType": "uint256",
          "name": "nftId",
          "type": "uint256"
        }
      ],
      "name": "cancelLendOrder",
      "outputs": [],
      "stateMutability": "nonpayable",
      "type": "function"
    },
    {
      "inputs": [
        {
          "internalType": "address",
          "name": "nftAddress",
          "type": "address"
        },
        {
          "internalType": "uint256",
          "name": "nftId",
          "type": "uint256"
        },
        {
          "internalType": "uint64",
          "name": "lendValidUntil",
          "type": "uint64"
        },
        {
          "internalType": "uint64",
          "name": "minDuration",
          "type": "uint64"
        },
        {
          "internalType": "uint64",
          "name": "maxDuration",
          "type": "uint64"
        },
        {
          "internalType": "uint8",
          "name": "shareRatio",
          "type": "uint8"
        },
        {
          "internalType": "address",
          "name": "paymentToken",
          "type": "address"
        }
      ],
      "name": "createLendOrder",
      "outputs": [],
      "stateMutability": "nonpayable",
      "type": "function"
    },
    {
      "inputs": [
        {
          "internalType": "address",
          "name": "nftAddress",
          "type": "address"
        },
        {
          "internalType": "uint256",
          "name": "nftId",
          "type": "uint256"
        },
        {
          "internalType": "uint64",
          "name": "duration",
          "type": "uint64"
        },
        {
          "internalType": "address",
          "name": "user",
          "type": "address"
        }
      ],
      "name": "fulfillOrder",
      "outputs": [],
      "stateMutability": "nonpayable",
      "type": "function"
    },
    {
      "inputs": [
        {
          "internalType": "address",
          "name": "nftAddress",
          "type": "address"
        },
        {
          "internalType": "uint256",
          "name": "nftId",
          "type": "uint256"
        }
      ],
      "name": "getLendOrder",
      "outputs": [
        {
          "components": [
            {
              "internalType": "uint256",
              "name": "id",
              "type": "uint256"
            },
            {
              "internalType": "address",
              "name": "lender",
              "type": "address"
            },
            {
              "internalType": "address",
              "name": "nftAddress",
              "type": "address"
            },
            {
              "internalType": "uint256",
              "name": "nftId",
              "type": "uint256"
            },
            {
              "internalType": "uint256",
              "name": "createTime",
              "type": "uint256"
            },
            {
              "internalType": "uint64",
              "name": "minDuration",
              "type": "uint64"
            },
            {
              "internalType": "uint64",
              "name": "maxDuration",
              "type": "uint64"
            },
            {
              "internalType": "uint8",
              "name": "shareRatio",
              "type": "uint8"
            },
            {
              "internalType": "address",
              "name": "paymentToken",
              "type": "address"
            },
            {
              "internalType": "address",
              "name": "lendContract",
              "type": "address"
            }
          ],
          "internalType": "struct IMarket.Lending",
          "name": "",
          "type": "tuple"
        }
      ],
      "stateMutability": "view",
      "type": "function"
    },
    {
      "inputs": [
        {
          "internalType": "address",
          "name": "operator",
          "type": "address"
        },
        {
          "internalType": "address",
          "name": "from",
          "type": "address"
        },
        {
          "internalType": "uint256",
          "name": "tokenId",
          "type": "uint256"
        },
        {
          "internalType": "bytes",
          "name": "data",
          "type": "bytes"
        }
      ],
      "name": "onERC721Received",
      "outputs": [
        {
          "internalType": "bytes4",
          "name": "",
          "type": "bytes4"
        }
      ],
      "stateMutability": "pure",
      "type": "function"
    }
  ],
  "bytecode": "0x608060405234801561001057600080fd5b5061423b806100206000396000f3fe60806040523480156200001157600080fd5b50600436106200005e5760003560e01c8063150b7a021462000063578063430e70501462000099578063434aee6314620000cf578063665fd53f14620000ef578063dede08a7146200010f575b600080fd5b6200008160048036038101906200007b9190620016e7565b6200012f565b604051620000909190620017ba565b60405180910390f35b620000b76004803603810190620000b19190620017d7565b6200015d565b604051620000c6919062001963565b60405180910390f35b620000ed6004803603810190620000e79190620017d7565b620003c2565b005b6200010d6004803603810190620001079190620019e3565b62000737565b005b6200012d600480360381019062000127919062001a96565b62000e3d565b005b60007f150b7a023d4804d13e8c85fb27262cb750cf6ba9f9dd3bb30d90f482ceeb4b1f905095945050505050565b62000167620014ff565b600360008473ffffffffffffffffffffffffffffffffffffffff1673ffffffffffffffffffffffffffffffffffffffff168152602001908152602001600020600083815260200190815260200160002060405180610140016040529081600082015481526020016001820160009054906101000a900473ffffffffffffffffffffffffffffffffffffffff1673ffffffffffffffffffffffffffffffffffffffff1673ffffffffffffffffffffffffffffffffffffffff1681526020016002820160009054906101000a900473ffffffffffffffffffffffffffffffffffffffff1673ffffffffffffffffffffffffffffffffffffffff1673ffffffffffffffffffffffffffffffffffffffff16815260200160038201548152602001600482015481526020016005820160009054906101000a900467ffffffffffffffff1667ffffffffffffffff1667ffffffffffffffff1681526020016005820160089054906101000a900467ffffffffffffffff1667ffffffffffffffff1667ffffffffffffffff1681526020016005820160109054906101000a900460ff1660ff1660ff1681526020016006820160009054906101000a900473ffffffffffffffffffffffffffffffffffffffff1673ffffffffffffffffffffffffffffffffffffffff1673ffffffffffffffffffffffffffffffffffffffff1681526020016007820160009054906101000a900473ffffffffffffffffffffffffffffffffffffffff1673ffffffffffffffffffffffffffffffffffffffff1673ffffffffffffffffffffffffffffffffffffffff1681525050905092915050565b6000600360008473ffffffffffffffffffffffffffffffffffffffff1673ffffffffffffffffffffffffffffffffffffffff168152602001908152602001600020600083815260200190815260200160002090503373ffffffffffffffffffffffffffffffffffffffff168160010160009054906101000a900473ffffffffffffffffffffffffffffffffffffffff1673ffffffffffffffffffffffffffffffffffffffff1614620004ab576040517f08c379a0000000000000000000000000000000000000000000000000000000008152600401620004a29062001b69565b60405180910390fd5b8060070160009054906101000a900473ffffffffffffffffffffffffffffffffffffffff1673ffffffffffffffffffffffffffffffffffffffff1663be040fb06040518163ffffffff1660e01b8152600401600060405180830381600087803b1580156200051857600080fd5b505af11580156200052d573d6000803e3d6000fd5b505050507f837f86dee2899e88710b23ee96ae86fcf262cd394c6f3c76d3d836de08659ed881600001548260010160009054906101000a900473ffffffffffffffffffffffffffffffffffffffff16858560405162000590949392919062001bad565b60405180910390a160008160010160006101000a81548173ffffffffffffffffffffffffffffffffffffffff021916908373ffffffffffffffffffffffffffffffffffffffff16021790555060008160020160006101000a81548173ffffffffffffffffffffffffffffffffffffffff021916908373ffffffffffffffffffffffffffffffffffffffff160217905550600081600301819055506000816004018190555060008160050160006101000a81548167ffffffffffffffff021916908367ffffffffffffffff16021790555060008160050160086101000a81548167ffffffffffffffff021916908367ffffffffffffffff16021790555060008160050160106101000a81548160ff021916908360ff16021790555060008160060160006101000a81548173ffffffffffffffffffffffffffffffffffffffff021916908373ffffffffffffffffffffffffffffffffffffffff16021790555060008160070160006101000a81548173ffffffffffffffffffffffffffffffffffffffff021916908373ffffffffffffffffffffffffffffffffffffffff160217905550505050565b600073ffffffffffffffffffffffffffffffffffffffff16600260008973ffffffffffffffffffffffffffffffffffffffff1673ffffffffffffffffffffffffffffffffffffffff168152602001908152602001600020600088815260200190815260200160002060009054906101000a900473ffffffffffffffffffffffffffffffffffffffff1673ffffffffffffffffffffffffffffffffffffffff161462000819576040517f08c379a0000000000000000000000000000000000000000000000000000000008152600401620008109062001c4a565b60405180910390fd5b62000826308888620012b0565b62000868576040517f08c379a00000000000000000000000000000000000000000000000000000000081526004016200085f9062001cbc565b60405180910390fd5b8267ffffffffffffffff168467ffffffffffffffff1610620008c1576040517f08c379a0000000000000000000000000000000000000000000000000000000008152600401620008b89062001d54565b60405180910390fd5b8467ffffffffffffffff168367ffffffffffffffff1642620008e4919062001da5565b1062000927576040517f08c379a00000000000000000000000000000000000000000000000000000000081526004016200091e9062001e78565b60405180910390fd5b60008773ffffffffffffffffffffffffffffffffffffffff16636352211e886040518263ffffffff1660e01b815260040162000964919062001e9a565b60206040518083038186803b1580156200097d57600080fd5b505afa15801562000992573d6000803e3d6000fd5b505050506040513d601f19601f82011682018060405250810190620009b8919062001ece565b90508773ffffffffffffffffffffffffffffffffffffffff166342842e0e82308a6040518463ffffffff1660e01b8152600401620009f99392919062001f00565b600060405180830381600087803b15801562000a1457600080fd5b505af115801562000a29573d6000803e3d6000fd5b5050505060008383888760405162000a4190620015c1565b62000a50949392919062001f5f565b604051809103906000f08015801562000a6d573d6000803e3d6000fd5b5090508873ffffffffffffffffffffffffffffffffffffffff1663095ea7b3828a6040518363ffffffff1660e01b815260040162000aad92919062001fac565b600060405180830381600087803b15801562000ac857600080fd5b505af115801562000add573d6000803e3d6000fd5b505050508073ffffffffffffffffffffffffffffffffffffffff1663adc9772e8a8a6040518363ffffffff1660e01b815260040162000b1e92919062001fac565b600060405180830381600087803b15801562000b3957600080fd5b505af115801562000b4e573d6000803e3d6000fd5b505050506000600360008b73ffffffffffffffffffffffffffffffffffffffff1673ffffffffffffffffffffffffffffffffffffffff16815260200190815260200160002060008a8152602001908152602001600020905062000bb26000620014db565b8160000181905550338160010160006101000a81548173ffffffffffffffffffffffffffffffffffffffff021916908373ffffffffffffffffffffffffffffffffffffffff160217905550898160020160006101000a81548173ffffffffffffffffffffffffffffffffffffffff021916908373ffffffffffffffffffffffffffffffffffffffff160217905550888160030181905550428160040181905550868160050160006101000a81548167ffffffffffffffff021916908367ffffffffffffffff160217905550858160050160086101000a81548167ffffffffffffffff021916908367ffffffffffffffff160217905550848160050160106101000a81548160ff021916908360ff160217905550838160060160006101000a81548173ffffffffffffffffffffffffffffffffffffffff021916908373ffffffffffffffffffffffffffffffffffffffff160217905550818160070160006101000a81548173ffffffffffffffffffffffffffffffffffffffff021916908373ffffffffffffffffffffffffffffffffffffffff16021790555062000d576000620014e9565b81600260008c73ffffffffffffffffffffffffffffffffffffffff1673ffffffffffffffffffffffffffffffffffffffff16815260200190815260200160002060008b815260200190815260200160002060006101000a81548173ffffffffffffffffffffffffffffffffffffffff021916908373ffffffffffffffffffffffffffffffffffffffff1602179055507ffb6db5795889abe94209052d5d57e7c0fe302f2a945f84af03e2b0c15d5eab528160000154338c8c8b8b8b8b60405162000e299897969594939291906200201c565b60405180910390a150505050505050505050565b6000600360008673ffffffffffffffffffffffffffffffffffffffff1673ffffffffffffffffffffffffffffffffffffffff16815260200190815260200160002060008581526020019081526020016000209050600073ffffffffffffffffffffffffffffffffffffffff168160010160009054906101000a900473ffffffffffffffffffffffffffffffffffffffff1673ffffffffffffffffffffffffffffffffffffffff16141562000f28576040517f08c379a000000000000000000000000000000000000000000000000000000000815260040162000f1f90620020fa565b60405180910390fd5b8060070160009054906101000a900473ffffffffffffffffffffffffffffffffffffffff1673ffffffffffffffffffffffffffffffffffffffff1663de5d588484846040518363ffffffff1660e01b815260040162000f899291906200211c565b600060405180830381600087803b15801562000fa457600080fd5b505af115801562000fb9573d6000803e3d6000fd5b505050506000600460008773ffffffffffffffffffffffffffffffffffffffff1673ffffffffffffffffffffffffffffffffffffffff168152602001908152602001600020600086815260200190815260200160002090506200101d6001620014db565b8160000181905550338160010160006101000a81548173ffffffffffffffffffffffffffffffffffffffff021916908373ffffffffffffffffffffffffffffffffffffffff1602179055508160010160009054906101000a900473ffffffffffffffffffffffffffffffffffffffff168160020160006101000a81548173ffffffffffffffffffffffffffffffffffffffff021916908373ffffffffffffffffffffffffffffffffffffffff160217905550858160030160006101000a81548173ffffffffffffffffffffffffffffffffffffffff021916908373ffffffffffffffffffffffffffffffffffffffff1602179055508481600401819055504281600501819055508367ffffffffffffffff16426200113c919062001da5565b81600601819055508160050160109054906101000a900460ff168160070160006101000a81548160ff021916908360ff1602179055508160060160009054906101000a900473ffffffffffffffffffffffffffffffffffffffff168160070160016101000a81548173ffffffffffffffffffffffffffffffffffffffff021916908373ffffffffffffffffffffffffffffffffffffffff160217905550620011e56001620014e9565b7f5984cabdc81377dc4fb1d8513b8cc810964577f6ba89c3ba044bce8884bc79e681600001548360000154338560010160009054906101000a900473ffffffffffffffffffffffffffffffffffffffff168a8a42428c67ffffffffffffffff1662001251919062001da5565b8a60050160109054906101000a900460ff168b60060160009054906101000a900473ffffffffffffffffffffffffffffffffffffffff16604051620012a09a9998979695949392919062002149565b60405180910390a1505050505050565b6000808373ffffffffffffffffffffffffffffffffffffffff16636352211e846040518263ffffffff1660e01b8152600401620012ee919062001e9a565b60206040518083038186803b1580156200130757600080fd5b505afa1580156200131c573d6000803e3d6000fd5b505050506040513d601f19601f8201168201806040525081019062001342919062001ece565b90508073ffffffffffffffffffffffffffffffffffffffff168573ffffffffffffffffffffffffffffffffffffffff1614806200143857508473ffffffffffffffffffffffffffffffffffffffff168473ffffffffffffffffffffffffffffffffffffffff1663081812fc856040518263ffffffff1660e01b8152600401620013cc919062001e9a565b60206040518083038186803b158015620013e557600080fd5b505afa158015620013fa573d6000803e3d6000fd5b505050506040513d601f19601f8201168201806040525081019062001420919062001ece565b73ffffffffffffffffffffffffffffffffffffffff16145b80620014d157508373ffffffffffffffffffffffffffffffffffffffff1663e985e9c582876040518363ffffffff1660e01b81526004016200147c929190620021f9565b60206040518083038186803b1580156200149557600080fd5b505afa158015620014aa573d6000803e3d6000fd5b505050506040513d601f19601f82011682018060405250810190620014d0919062002263565b5b9150509392505050565b600081600001549050919050565b6001816000016000828254019250508190555050565b60405180610140016040528060008152602001600073ffffffffffffffffffffffffffffffffffffffff168152602001600073ffffffffffffffffffffffffffffffffffffffff1681526020016000815260200160008152602001600067ffffffffffffffff168152602001600067ffffffffffffffff168152602001600060ff168152602001600073ffffffffffffffffffffffffffffffffffffffff168152602001600073ffffffffffffffffffffffffffffffffffffffff1681525090565b611f70806200229683390190565b600080fd5b600080fd5b600073ffffffffffffffffffffffffffffffffffffffff82169050919050565b60006200160682620015d9565b9050919050565b6200161881620015f9565b81146200162457600080fd5b50565b60008135905062001638816200160d565b92915050565b6000819050919050565b62001653816200163e565b81146200165f57600080fd5b50565b600081359050620016738162001648565b92915050565b600080fd5b600080fd5b600080fd5b60008083601f840112620016a157620016a062001679565b5b8235905067ffffffffffffffff811115620016c157620016c06200167e565b5b602083019150836001820283011115620016e057620016df62001683565b5b9250929050565b600080600080600060808688031215620017065762001705620015cf565b5b6000620017168882890162001627565b9550506020620017298882890162001627565b94505060406200173c8882890162001662565b935050606086013567ffffffffffffffff81111562001760576200175f620015d4565b5b6200176e8882890162001688565b92509250509295509295909350565b60007fffffffff0000000000000000000000000000000000000000000000000000000082169050919050565b620017b4816200177d565b82525050565b6000602082019050620017d16000830184620017a9565b92915050565b60008060408385031215620017f157620017f0620015cf565b5b6000620018018582860162001627565b9250506020620018148582860162001662565b9150509250929050565b62001829816200163e565b82525050565b6200183a81620015f9565b82525050565b600067ffffffffffffffff82169050919050565b6200185f8162001840565b82525050565b600060ff82169050919050565b6200187d8162001865565b82525050565b610140820160008201516200189c60008501826200181e565b506020820151620018b160208501826200182f565b506040820151620018c660408501826200182f565b506060820151620018db60608501826200181e565b506080820151620018f060808501826200181e565b5060a08201516200190560a085018262001854565b5060c08201516200191a60c085018262001854565b5060e08201516200192f60e085018262001872565b50610100820151620019466101008501826200182f565b506101208201516200195d6101208501826200182f565b50505050565b6000610140820190506200197b600083018462001883565b92915050565b6200198c8162001840565b81146200199857600080fd5b50565b600081359050620019ac8162001981565b92915050565b620019bd8162001865565b8114620019c957600080fd5b50565b600081359050620019dd81620019b2565b92915050565b600080600080600080600060e0888a03121562001a055762001a04620015cf565b5b600062001a158a828b0162001627565b975050602062001a288a828b0162001662565b965050604062001a3b8a828b016200199b565b955050606062001a4e8a828b016200199b565b945050608062001a618a828b016200199b565b93505060a062001a748a828b01620019cc565b92505060c062001a878a828b0162001627565b91505092959891949750929550565b6000806000806080858703121562001ab35762001ab2620015cf565b5b600062001ac38782880162001627565b945050602062001ad68782880162001662565b935050604062001ae9878288016200199b565b925050606062001afc8782880162001627565b91505092959194509250565b600082825260208201905092915050565b7f6e6f74206c656e64657200000000000000000000000000000000000000000000600082015250565b600062001b51600a8362001b08565b915062001b5e8262001b19565b602082019050919050565b6000602082019050818103600083015262001b848162001b42565b9050919050565b62001b96816200163e565b82525050565b62001ba781620015f9565b82525050565b600060808201905062001bc4600083018762001b8b565b62001bd3602083018662001b9c565b62001be2604083018562001b9c565b62001bf1606083018462001b8b565b95945050505050565b7f616c7265616479206c656e640000000000000000000000000000000000000000600082015250565b600062001c32600c8362001b08565b915062001c3f8262001bfa565b602082019050919050565b6000602082019050818103600083015262001c658162001c23565b9050919050565b7f6f6e6c7920617070726f766564206f72206f776e657200000000000000000000600082015250565b600062001ca460168362001b08565b915062001cb18262001c6c565b602082019050919050565b6000602082019050818103600083015262001cd78162001c95565b9050919050565b7f6d61784475726174696f6e206d757374206265206c6f6e676572207468616e2060008201527f6d696e4475726174696f6e000000000000000000000000000000000000000000602082015250565b600062001d3c602b8362001b08565b915062001d498262001cde565b604082019050919050565b6000602082019050818103600083015262001d6f8162001d2d565b9050919050565b7f4e487b7100000000000000000000000000000000000000000000000000000000600052601160045260246000fd5b600062001db2826200163e565b915062001dbf836200163e565b9250827fffffffffffffffffffffffffffffffffffffffffffffffffffffffffffffffff0382111562001df75762001df662001d76565b5b828201905092915050565b7f6c656e6456616c6964556e74696c206d757374206265206c6f6e67657220746860008201527f616e20626c6f636b2e74696d657374616d70202b206d61784475726174696f6e602082015250565b600062001e6060408362001b08565b915062001e6d8262001e02565b604082019050919050565b6000602082019050818103600083015262001e938162001e51565b9050919050565b600060208201905062001eb1600083018462001b8b565b92915050565b60008151905062001ec8816200160d565b92915050565b60006020828403121562001ee75762001ee6620015cf565b5b600062001ef78482850162001eb7565b91505092915050565b600060608201905062001f17600083018662001b9c565b62001f26602083018562001b9c565b62001f35604083018462001b8b565b949350505050565b62001f488162001865565b82525050565b62001f598162001840565b82525050565b600060808201905062001f76600083018762001f3d565b62001f85602083018662001b9c565b62001f94604083018562001f4e565b62001fa3606083018462001f4e565b95945050505050565b600060408201905062001fc3600083018562001b9c565b62001fd2602083018462001b8b565b9392505050565b6000819050919050565b60006200200462001ffe62001ff88462001865565b62001fd9565b6200163e565b9050919050565b620020168162001fe3565b82525050565b60006101008201905062002034600083018b62001b8b565b62002043602083018a62001b9c565b62002052604083018962001b9c565b62002061606083018862001b8b565b62002070608083018762001f4e565b6200207f60a083018662001f4e565b6200208e60c08301856200200b565b6200209d60e083018462001b9c565b9998505050505050505050565b7f6e6f7420796574206c656e640000000000000000000000000000000000000000600082015250565b6000620020e2600c8362001b08565b9150620020ef82620020aa565b602082019050919050565b600060208201905081810360008301526200211581620020d3565b9050919050565b600060408201905062002133600083018562001f4e565b62002142602083018462001b9c565b9392505050565b60006101408201905062002161600083018d62001b8b565b62002170602083018c62001b8b565b6200217f604083018b62001b9c565b6200218e606083018a62001b9c565b6200219d608083018962001b9c565b620021ac60a083018862001b8b565b620021bb60c083018762001b8b565b620021ca60e083018662001b8b565b620021da61010083018562001f3d565b620021ea61012083018462001b9c565b9b9a5050505050505050505050565b600060408201905062002210600083018562001b9c565b6200221f602083018462001b9c565b9392505050565b60008115159050919050565b6200223d8162002226565b81146200224957600080fd5b50565b6000815190506200225d8162002232565b92915050565b6000602082840312156200227c576200227b620015cf565b5b60006200228c848285016200224c565b9150509291505056fe60806040523480156200001157600080fd5b5060405162001f7038038062001f708339818101604052810190620000379190620002cf565b620000576200004b6200011660201b60201c565b6200011e60201b60201c565b83600560086101000a81548160ff021916908360ff16021790555082600560096101000a81548173ffffffffffffffffffffffffffffffffffffffff021916908373ffffffffffffffffffffffffffffffffffffffff16021790555081600360006101000a81548167ffffffffffffffff021916908367ffffffffffffffff16021790555080600560006101000a81548167ffffffffffffffff021916908367ffffffffffffffff160217905550426004819055505050505062000341565b600033905090565b60008060009054906101000a900473ffffffffffffffffffffffffffffffffffffffff169050816000806101000a81548173ffffffffffffffffffffffffffffffffffffffff021916908373ffffffffffffffffffffffffffffffffffffffff1602179055508173ffffffffffffffffffffffffffffffffffffffff168173ffffffffffffffffffffffffffffffffffffffff167f8be0079c531659141344cd1fd0a4f28419497f9722a3daafe3b4186f6b6457e060405160405180910390a35050565b600080fd5b600060ff82169050919050565b620001ff81620001e7565b81146200020b57600080fd5b50565b6000815190506200021f81620001f4565b92915050565b600073ffffffffffffffffffffffffffffffffffffffff82169050919050565b6000620002528262000225565b9050919050565b620002648162000245565b81146200027057600080fd5b50565b600081519050620002848162000259565b92915050565b600067ffffffffffffffff82169050919050565b620002a9816200028a565b8114620002b557600080fd5b50565b600081519050620002c9816200029e565b92915050565b60008060008060808587031215620002ec57620002eb620001e2565b5b6000620002fc878288016200020e565b94505060206200030f8782880162000273565b93505060406200032287828801620002b8565b92505060606200033587828801620002b8565b91505092959194509250565b611c1f80620003516000396000f3fe608060405234801561001057600080fd5b50600436106101215760003560e01c8063832880e7116100ad578063be040fb011610071578063be040fb0146102c2578063d506355c146102cc578063de5d5884146102ec578063ec3e213314610308578063f2fde38b1461032657610121565b8063832880e7146102305780638da5cb5b1461024e578063adc9772e1461026c578063b12e543114610288578063bb5d40eb146102a457610121565b80635d8d1585116100f45780635d8d1585146101ae57806367cf11ad146101cc5780636def4499146101ea578063715018a6146102085780637ca5685f1461021257610121565b8063150b7a0214610126578063244af19b146101565780632e163159146101745780633013ce2914610190575b600080fd5b610140600480360381019061013b91906111ff565b610342565b60405161014d91906112c2565b60405180910390f35b61015e610370565b60405161016b91906112f8565b60405180910390f35b61018e6004803603810190610189919061134c565b6103cd565b005b610198610478565b6040516101a59190611388565b60405180910390f35b6101b661049e565b6040516101c39190611403565b60405180910390f35b6101d4610522565b6040516101e1919061142d565b60405180910390f35b6101f2610535565b6040516101ff91906112f8565b60405180910390f35b6102106105e0565b005b61021a6105f4565b6040516102279190611477565b60405180910390f35b61023861066e565b6040516102459190611388565b60405180910390f35b61025661069b565b6040516102639190611388565b60405180910390f35b61028660048036038101906102819190611492565b6106c4565b005b6102a2600480360381019061029d9190611512565b610901565b005b6102ac6109ba565b6040516102b991906112f8565b60405180910390f35b6102ca6109e4565b005b6102d4610bff565b6040516102e39392919061153f565b60405180910390f35b61030660048036038101906103019190611576565b610cc2565b005b610310610e42565b60405161031d91906115c5565b60405180910390f35b610340600480360381019061033b91906115e0565b610e5c565b005b60007f150b7a023d4804d13e8c85fb27262cb750cf6ba9f9dd3bb30d90f482ceeb4b1f905095945050505050565b60006001151561037e610ee0565b1515146103c0576040517f08c379a00000000000000000000000000000000000000000000000000000000081526004016103b79061166a565b60405180910390fd5b6103c8610f3c565b905090565b6103d5610f4b565b600115156103e1610f3c565b151514610423576040517f08c379a000000000000000000000000000000000000000000000000000000000815260040161041a906116d6565b60405180910390fd5b80600560086101000a81548160ff021916908360ff1602179055507f7c4c46712ef42cf7f97120c014ae2d133998599f8fbf8aae88c2e225fbde0a4a8160405161046d919061142d565b60405180910390a150565b600560099054906101000a900473ffffffffffffffffffffffffffffffffffffffff1681565b6104a6611095565b600660405180606001604052908160008201548152602001600182015481526020016002820160009054906101000a900473ffffffffffffffffffffffffffffffffffffffff1673ffffffffffffffffffffffffffffffffffffffff1673ffffffffffffffffffffffffffffffffffffffff1681525050905090565b600560089054906101000a900460ff1681565b600060011515610543610ee0565b151514610585576040517f08c379a000000000000000000000000000000000000000000000000000000000815260040161057c9061166a565b60405180910390fd5b600115156105916109ba565b1515146105d3576040517f08c379a00000000000000000000000000000000000000000000000000000000081526004016105ca90611742565b60405180910390fd5b6105db610f3c565b905090565b6105e8610f4b565b6105f26000610fc9565b565b6105fc6110cc565b60096040518060400160405290816000820160009054906101000a900473ffffffffffffffffffffffffffffffffffffffff1673ffffffffffffffffffffffffffffffffffffffff1673ffffffffffffffffffffffffffffffffffffffff168152602001600182015481525050905090565b6000600660020160009054906101000a900473ffffffffffffffffffffffffffffffffffffffff16905090565b60008060009054906101000a900473ffffffffffffffffffffffffffffffffffffffff16905090565b6106cc610f4b565b600015156106d8610ee0565b15151461071a576040517f08c379a0000000000000000000000000000000000000000000000000000000008152600401610711906117ae565b60405180910390fd5b8173ffffffffffffffffffffffffffffffffffffffff16636352211e826040518263ffffffff1660e01b815260040161075391906117dd565b60206040518083038186803b15801561076b57600080fd5b505afa15801561077f573d6000803e3d6000fd5b505050506040513d601f19601f820116820180604052508101906107a3919061180d565b600260006101000a81548173ffffffffffffffffffffffffffffffffffffffff021916908373ffffffffffffffffffffffffffffffffffffffff1602179055508173ffffffffffffffffffffffffffffffffffffffff166342842e0e600260009054906101000a900473ffffffffffffffffffffffffffffffffffffffff1630846040518463ffffffff1660e01b81526004016108429392919061183a565b600060405180830381600087803b15801561085c57600080fd5b505af1158015610870573d6000803e3d6000fd5b5050505081600960000160006101000a81548173ffffffffffffffffffffffffffffffffffffffff021916908373ffffffffffffffffffffffffffffffffffffffff160217905550806009600101819055507f99039fcf0a98f484616c5196ee8b2ecfa971babf0b519848289ea4db381f85f73383836040516108f59392919061183a565b60405180910390a15050565b610909610f4b565b60011515610915610f3c565b151514610957576040517f08c379a000000000000000000000000000000000000000000000000000000000815260040161094e906118bd565b60405180910390fd5b80600560006101000a81548167ffffffffffffffff021916908367ffffffffffffffff1602179055507f5500e1aa94bd8c45be874db9c693b374eef21d0b6a609466cc3ff1574bd733e2816040516109af91906115c5565b60405180910390a150565b6000600360009054906101000a900467ffffffffffffffff1667ffffffffffffffff164210905090565b6109ec610f4b565b600115156109f8610370565b151514610a3a576040517f08c379a0000000000000000000000000000000000000000000000000000000008152600401610a3190611929565b60405180910390fd5b600960000160009054906101000a900473ffffffffffffffffffffffffffffffffffffffff1673ffffffffffffffffffffffffffffffffffffffff166342842e0e30600960000160009054906101000a900473ffffffffffffffffffffffffffffffffffffffff166009600101546040518463ffffffff1660e01b8152600401610ac69392919061183a565b600060405180830381600087803b158015610ae057600080fd5b505af1158015610af4573d6000803e3d6000fd5b50505050600060096040518060400160405290816000820160009054906101000a900473ffffffffffffffffffffffffffffffffffffffff1673ffffffffffffffffffffffffffffffffffffffff1673ffffffffffffffffffffffffffffffffffffffff16815260200160018201548152505090506000600960000160006101000a81548173ffffffffffffffffffffffffffffffffffffffff021916908373ffffffffffffffffffffffffffffffffffffffff16021790555060006009600101819055507fd12200efa34901b99367694174c3b0d32c99585fdf37c7c26892136ddd0836d93382600001518360200151604051610bf49392919061183a565b60405180910390a150565b610c07611095565b6000806006600560099054906101000a900473ffffffffffffffffffffffffffffffffffffffff16600560089054906101000a900460ff168260405180606001604052908160008201548152602001600182015481526020016002820160009054906101000a900473ffffffffffffffffffffffffffffffffffffffff1673ffffffffffffffffffffffffffffffffffffffff1673ffffffffffffffffffffffffffffffffffffffff16815250509250925092509250909192565b610cca610f4b565b60011515610cd6610535565b151514610d18576040517f08c379a0000000000000000000000000000000000000000000000000000000008152600401610d0f90611995565b60405180910390fd5b600560009054906101000a900467ffffffffffffffff1667ffffffffffffffff168267ffffffffffffffff161115610d85576040517f08c379a0000000000000000000000000000000000000000000000000000000008152600401610d7c90611a01565b60405180910390fd5b80600660020160006101000a81548173ffffffffffffffffffffffffffffffffffffffff021916908373ffffffffffffffffffffffffffffffffffffffff16021790555042600660000181905550428267ffffffffffffffff16610de99190611a50565b6006600101819055507f870ff707643876dfe73d70e65373dc325461b6353db2e86fa329ad6d32f49fc160096001015460066000015460066001015484604051610e369493929190611aa6565b60405180910390a15050565b600560009054906101000a900467ffffffffffffffff1681565b610e64610f4b565b600073ffffffffffffffffffffffffffffffffffffffff168173ffffffffffffffffffffffffffffffffffffffff161415610ed4576040517f08c379a0000000000000000000000000000000000000000000000000000000008152600401610ecb90611b5d565b60405180910390fd5b610edd81610fc9565b50565b60008073ffffffffffffffffffffffffffffffffffffffff16600960000160009054906101000a900473ffffffffffffffffffffffffffffffffffffffff1673ffffffffffffffffffffffffffffffffffffffff161415905090565b60004260066001015410905090565b610f5361108d565b73ffffffffffffffffffffffffffffffffffffffff16610f7161069b565b73ffffffffffffffffffffffffffffffffffffffff1614610fc7576040517f08c379a0000000000000000000000000000000000000000000000000000000008152600401610fbe90611bc9565b60405180910390fd5b565b60008060009054906101000a900473ffffffffffffffffffffffffffffffffffffffff169050816000806101000a81548173ffffffffffffffffffffffffffffffffffffffff021916908373ffffffffffffffffffffffffffffffffffffffff1602179055508173ffffffffffffffffffffffffffffffffffffffff168173ffffffffffffffffffffffffffffffffffffffff167f8be0079c531659141344cd1fd0a4f28419497f9722a3daafe3b4186f6b6457e060405160405180910390a35050565b600033905090565b60405180606001604052806000815260200160008152602001600073ffffffffffffffffffffffffffffffffffffffff1681525090565b6040518060400160405280600073ffffffffffffffffffffffffffffffffffffffff168152602001600081525090565b600080fd5b600080fd5b600073ffffffffffffffffffffffffffffffffffffffff82169050919050565b600061113182611106565b9050919050565b61114181611126565b811461114c57600080fd5b50565b60008135905061115e81611138565b92915050565b6000819050919050565b61117781611164565b811461118257600080fd5b50565b6000813590506111948161116e565b92915050565b600080fd5b600080fd5b600080fd5b60008083601f8401126111bf576111be61119a565b5b8235905067ffffffffffffffff8111156111dc576111db61119f565b5b6020830191508360018202830111156111f8576111f76111a4565b5b9250929050565b60008060008060006080868803121561121b5761121a6110fc565b5b60006112298882890161114f565b955050602061123a8882890161114f565b945050604061124b88828901611185565b935050606086013567ffffffffffffffff81111561126c5761126b611101565b5b611278888289016111a9565b92509250509295509295909350565b60007fffffffff0000000000000000000000000000000000000000000000000000000082169050919050565b6112bc81611287565b82525050565b60006020820190506112d760008301846112b3565b92915050565b60008115159050919050565b6112f2816112dd565b82525050565b600060208201905061130d60008301846112e9565b92915050565b600060ff82169050919050565b61132981611313565b811461133457600080fd5b50565b60008135905061134681611320565b92915050565b600060208284031215611362576113616110fc565b5b600061137084828501611337565b91505092915050565b61138281611126565b82525050565b600060208201905061139d6000830184611379565b92915050565b6113ac81611164565b82525050565b6113bb81611126565b82525050565b6060820160008201516113d760008501826113a3565b5060208201516113ea60208501826113a3565b5060408201516113fd60408501826113b2565b50505050565b600060608201905061141860008301846113c1565b92915050565b61142781611313565b82525050565b6000602082019050611442600083018461141e565b92915050565b60408201600082015161145e60008501826113b2565b50602082015161147160208501826113a3565b50505050565b600060408201905061148c6000830184611448565b92915050565b600080604083850312156114a9576114a86110fc565b5b60006114b78582860161114f565b92505060206114c885828601611185565b9150509250929050565b600067ffffffffffffffff82169050919050565b6114ef816114d2565b81146114fa57600080fd5b50565b60008135905061150c816114e6565b92915050565b600060208284031215611528576115276110fc565b5b6000611536848285016114fd565b91505092915050565b600060a08201905061155460008301866113c1565b6115616060830185611379565b61156e608083018461141e565b949350505050565b6000806040838503121561158d5761158c6110fc565b5b600061159b858286016114fd565b92505060206115ac8582860161114f565b9150509250929050565b6115bf816114d2565b82525050565b60006020820190506115da60008301846115b6565b92915050565b6000602082840312156115f6576115f56110fc565b5b60006116048482850161114f565b91505092915050565b600082825260208201905092915050565b7f6e6f7420796574207374616b696e670000000000000000000000000000000000600082015250565b6000611654600f8361160d565b915061165f8261161e565b602082019050919050565b6000602082019050818103600083015261168381611647565b9050919050565b7f63616e6e6f7420736574207368617265526174696f0000000000000000000000600082015250565b60006116c060158361160d565b91506116cb8261168a565b602082019050919050565b600060208201905081810360008301526116ef816116b3565b9050919050565b7f65787069726564206c656e640000000000000000000000000000000000000000600082015250565b600061172c600c8361160d565b9150611737826116f6565b602082019050919050565b6000602082019050818103600083015261175b8161171f565b9050919050565b7f616c7265616479207374616b696e670000000000000000000000000000000000600082015250565b6000611798600f8361160d565b91506117a382611762565b602082019050919050565b600060208201905081810360008301526117c78161178b565b9050919050565b6117d781611164565b82525050565b60006020820190506117f260008301846117ce565b92915050565b60008151905061180781611138565b92915050565b600060208284031215611823576118226110fc565b5b6000611831848285016117f8565b91505092915050565b600060608201905061184f6000830186611379565b61185c6020830185611379565b61186960408301846117ce565b949350505050565b7f63616e6e6f7420736574206d61784475726174696f6e00000000000000000000600082015250565b60006118a760168361160d565b91506118b282611871565b602082019050919050565b600060208201905081810360008301526118d68161189a565b9050919050565b7f63616e6e6f742072656465656d00000000000000000000000000000000000000600082015250565b6000611913600d8361160d565b915061191e826118dd565b602082019050919050565b6000602082019050818103600083015261194281611906565b9050919050565b7f63616e6e6f742072656e74000000000000000000000000000000000000000000600082015250565b600061197f600b8361160d565b915061198a82611949565b602082019050919050565b600060208201905081810360008301526119ae81611972565b9050919050565b7f6f766572206d617852656e744475726174696f6e000000000000000000000000600082015250565b60006119eb60148361160d565b91506119f6826119b5565b602082019050919050565b60006020820190508181036000830152611a1a816119de565b9050919050565b7f4e487b7100000000000000000000000000000000000000000000000000000000600052601160045260246000fd5b6000611a5b82611164565b9150611a6683611164565b9250827fffffffffffffffffffffffffffffffffffffffffffffffffffffffffffffffff03821115611a9b57611a9a611a21565b5b828201905092915050565b6000608082019050611abb60008301876117ce565b611ac860208301866117ce565b611ad560408301856117ce565b611ae26060830184611379565b95945050505050565b7f4f776e61626c653a206e6577206f776e657220697320746865207a65726f206160008201527f6464726573730000000000000000000000000000000000000000000000000000602082015250565b6000611b4760268361160d565b9150611b5282611aeb565b604082019050919050565b60006020820190508181036000830152611b7681611b3a565b9050919050565b7f4f776e61626c653a2063616c6c6572206973206e6f7420746865206f776e6572600082015250565b6000611bb360208361160d565b9150611bbe82611b7d565b602082019050919050565b60006020820190508181036000830152611be281611ba6565b905091905056fea26469706673582212203e7e54714affe785727ec0df4b012f6a59b937d3df9491833d5347fc5438dda664736f6c63430008090033a2646970667358221220a8b4292372ef5a84bf26baca998caf33d96aae9c16c06d176197d76c5a5e920364736f6c63430008090033",
  "linkReferences": {},
  "deployedLinkReferences": {}
}